{
  "contractName": "Campaign",
  "abi": [
    {
      "inputs": [
        {
          "internalType": "address",
          "name": "_manager",
          "type": "address"
        },
        {
          "internalType": "uint256",
          "name": "_minContribution",
          "type": "uint256"
        }
      ],
      "stateMutability": "nonpayable",
      "type": "constructor"
    },
    {
      "inputs": [
        {
          "internalType": "address",
          "name": "",
          "type": "address"
        }
      ],
      "name": "bakers",
      "outputs": [
        {
          "internalType": "uint256",
          "name": "",
          "type": "uint256"
        }
      ],
      "stateMutability": "view",
      "type": "function"
    },
    {
      "inputs": [],
      "name": "bakersCount",
      "outputs": [
        {
          "internalType": "uint256",
          "name": "",
          "type": "uint256"
        }
      ],
      "stateMutability": "view",
      "type": "function"
    },
    {
      "inputs": [],
      "name": "manager",
      "outputs": [
        {
          "internalType": "address",
          "name": "",
          "type": "address"
        }
      ],
      "stateMutability": "view",
      "type": "function"
    },
    {
      "inputs": [],
      "name": "minContribution",
      "outputs": [
        {
          "internalType": "uint256",
          "name": "",
          "type": "uint256"
        }
      ],
      "stateMutability": "view",
      "type": "function"
    },
    {
      "inputs": [
        {
          "internalType": "uint256",
          "name": "",
          "type": "uint256"
        }
      ],
      "name": "requests",
      "outputs": [
        {
          "internalType": "string",
          "name": "description",
          "type": "string"
        },
        {
          "internalType": "uint256",
          "name": "value",
          "type": "uint256"
        },
        {
          "internalType": "address",
          "name": "recipient",
          "type": "address"
        },
        {
          "internalType": "uint256",
          "name": "approved",
          "type": "uint256"
        },
        {
          "internalType": "bool",
          "name": "complete",
          "type": "bool"
        }
      ],
      "stateMutability": "view",
      "type": "function"
    },
    {
      "inputs": [],
      "name": "contribute",
      "outputs": [],
      "stateMutability": "payable",
      "type": "function"
    },
    {
      "inputs": [
        {
          "internalType": "string",
          "name": "description",
          "type": "string"
        },
        {
          "internalType": "uint256",
          "name": "value",
          "type": "uint256"
        },
        {
          "internalType": "address",
          "name": "recipient",
          "type": "address"
        }
      ],
      "name": "createRequest",
      "outputs": [],
      "stateMutability": "nonpayable",
      "type": "function"
    },
    {
      "inputs": [
        {
          "internalType": "uint256",
          "name": "index",
          "type": "uint256"
        }
      ],
      "name": "approveRequest",
      "outputs": [],
      "stateMutability": "nonpayable",
      "type": "function"
    },
    {
      "inputs": [
        {
          "internalType": "uint256",
          "name": "index",
          "type": "uint256"
        }
      ],
      "name": "finalizeRequest",
      "outputs": [],
      "stateMutability": "nonpayable",
      "type": "function"
    },
    {
      "inputs": [],
      "name": "getSummary",
      "outputs": [
        {
          "internalType": "uint256",
          "name": "",
          "type": "uint256"
        },
        {
          "internalType": "uint256",
          "name": "",
          "type": "uint256"
        },
        {
          "internalType": "uint256",
          "name": "",
          "type": "uint256"
        },
        {
          "internalType": "uint256",
          "name": "",
          "type": "uint256"
        },
        {
          "internalType": "address",
          "name": "",
          "type": "address"
        }
      ],
      "stateMutability": "view",
      "type": "function"
    },
    {
      "inputs": [],
      "name": "getRequestsCount",
      "outputs": [
        {
          "internalType": "uint256",
          "name": "",
          "type": "uint256"
        }
      ],
      "stateMutability": "view",
      "type": "function"
    }
  ],
  "bytecode": "0x60806040523480156200001157600080fd5b50604051620016e5380380620016e58339818101604052810190620000379190620000c6565b816000806101000a81548173ffffffffffffffffffffffffffffffffffffffff021916908373ffffffffffffffffffffffffffffffffffffffff160217905550600a81106200008757806200008a565b600a5b600181905550505062000179565b600081519050620000a98162000145565b92915050565b600081519050620000c0816200015f565b92915050565b60008060408385031215620000da57600080fd5b6000620000ea8582860162000098565b9250506020620000fd85828601620000af565b9150509250929050565b600062000114826200011b565b9050919050565b600073ffffffffffffffffffffffffffffffffffffffff82169050919050565b6000819050919050565b620001508162000107565b81146200015c57600080fd5b50565b6200016a816200013b565b81146200017657600080fd5b50565b61155c80620001896000396000f3fe60806040526004361061009c5760003560e01c80638a9cfd55116100645780638a9cfd5514610190578063aaffadf3146101b9578063c14606f5146101e4578063d7bb99ba1461020f578063d7d1bbdb14610219578063efeaa901146102425761009c565b806303441006146100a15780633410452a146100ca5780634051ddac146100f5578063481c6a751461012457806381d12c581461014f575b600080fd5b3480156100ad57600080fd5b506100c860048036038101906100c39190610d70565b61027f565b005b3480156100d657600080fd5b506100df61048f565b6040516100ec9190611049565b60405180910390f35b34801561010157600080fd5b5061010a61049c565b60405161011b959493929190611064565b60405180910390f35b34801561013057600080fd5b506101396104e3565b6040516101469190610ef4565b60405180910390f35b34801561015b57600080fd5b5061017660048036038101906101719190610d70565b610507565b604051610187959493929190610f0f565b60405180910390f35b34801561019c57600080fd5b506101b760048036038101906101b29190610d09565b610602565b005b3480156101c557600080fd5b506101ce6107a1565b6040516101db9190611049565b60405180910390f35b3480156101f057600080fd5b506101f96107a7565b6040516102069190611049565b60405180910390f35b6102176107ad565b005b34801561022557600080fd5b50610240600480360381019061023b9190610d70565b6108ab565b005b34801561024e57600080fd5b5061026960048036038101906102649190610ce0565b610b93565b6040516102769190611049565b60405180910390f35b60008054906101000a900473ffffffffffffffffffffffffffffffffffffffff1673ffffffffffffffffffffffffffffffffffffffff163373ffffffffffffffffffffffffffffffffffffffff161461030d576040517f08c379a000000000000000000000000000000000000000000000000000000000815260040161030490611009565b60405180910390fd5b600060048281548110610349577f4e487b7100000000000000000000000000000000000000000000000000000000600052603260045260246000fd5b906000526020600020906005020190508060040160009054906101000a900460ff16156103ab576040517f08c379a00000000000000000000000000000000000000000000000000000000081526004016103a290611029565b60405180910390fd5b60026003546103ba919061117f565b8160030154116103ff576040517f08c379a00000000000000000000000000000000000000000000000000000000081526004016103f690610fa9565b60405180910390fd5b60018160040160006101000a81548160ff0219169083151502179055508060020160009054906101000a900473ffffffffffffffffffffffffffffffffffffffff1673ffffffffffffffffffffffffffffffffffffffff166108fc82600101549081150290604051600060405180830381858888f1935050505015801561048a573d6000803e3d6000fd5b505050565b6000600480549050905090565b60008060008060006001544760048054905060035460008054906101000a900473ffffffffffffffffffffffffffffffffffffffff16945094509450945094509091929394565b60008054906101000a900473ffffffffffffffffffffffffffffffffffffffff1681565b6004818154811061051757600080fd5b906000526020600020906005020160009150905080600001805461053a9061123a565b80601f01602080910402602001604051908101604052809291908181526020018280546105669061123a565b80156105b35780601f10610588576101008083540402835291602001916105b3565b820191906000526020600020905b81548152906001019060200180831161059657829003601f168201915b5050505050908060010154908060020160009054906101000a900473ffffffffffffffffffffffffffffffffffffffff16908060030154908060040160009054906101000a900460ff16905085565b60008054906101000a900473ffffffffffffffffffffffffffffffffffffffff1673ffffffffffffffffffffffffffffffffffffffff163373ffffffffffffffffffffffffffffffffffffffff1614610690576040517f08c379a000000000000000000000000000000000000000000000000000000000815260040161068790611009565b60405180910390fd5b60006040518060a001604052808581526020018481526020018373ffffffffffffffffffffffffffffffffffffffff168152602001600081526020016000151581525090506004819080600181540180825580915050600190039060005260206000209060050201600090919091909150600082015181600001908051906020019061071d929190610bab565b506020820151816001015560408201518160020160006101000a81548173ffffffffffffffffffffffffffffffffffffffff021916908373ffffffffffffffffffffffffffffffffffffffff1602179055506060820151816003015560808201518160040160006101000a81548160ff021916908315150217905550505050505050565b60015481565b60035481565b6001543410156107f2576040517f08c379a00000000000000000000000000000000000000000000000000000000081526004016107e990610fc9565b60405180910390fd5b6000600260003373ffffffffffffffffffffffffffffffffffffffff1673ffffffffffffffffffffffffffffffffffffffff168152602001908152602001600020541415610853576003600081548092919061084d9061129d565b91905055505b34600260003373ffffffffffffffffffffffffffffffffffffffff1673ffffffffffffffffffffffffffffffffffffffff16815260200190815260200160002060008282546108a29190611129565b92505081905550565b3373ffffffffffffffffffffffffffffffffffffffff1660008054906101000a900473ffffffffffffffffffffffffffffffffffffffff1673ffffffffffffffffffffffffffffffffffffffff16141561093a576040517f08c379a000000000000000000000000000000000000000000000000000000000815260040161093190610fe9565b60405180910390fd5b600154600260003373ffffffffffffffffffffffffffffffffffffffff1673ffffffffffffffffffffffffffffffffffffffff1681526020019081526020016000205410156109be576040517f08c379a00000000000000000000000000000000000000000000000000000000081526004016109b590610f89565b60405180910390fd5b6000600482815481106109fa577f4e487b7100000000000000000000000000000000000000000000000000000000600052603260045260246000fd5b906000526020600020906005020190506000816001015411610a51576040517f08c379a0000000000000000000000000000000000000000000000000000000008152600401610a4890610f69565b60405180910390fd5b8060040160009054906101000a900460ff1615610aa3576040517f08c379a0000000000000000000000000000000000000000000000000000000008152600401610a9a90611029565b60405180910390fd5b60006005600084815260200190815260200160002060003373ffffffffffffffffffffffffffffffffffffffff1673ffffffffffffffffffffffffffffffffffffffff16815260200190815260200160002060009054906101000a900460ff16905080610b8e5760016005600085815260200190815260200160002060003373ffffffffffffffffffffffffffffffffffffffff1673ffffffffffffffffffffffffffffffffffffffff16815260200190815260200160002060006101000a81548160ff021916908315150217905550816003016000815480929190610b889061129d565b91905055505b505050565b60026020528060005260406000206000915090505481565b828054610bb79061123a565b90600052602060002090601f016020900481019282610bd95760008555610c20565b82601f10610bf257805160ff1916838001178555610c20565b82800160010185558215610c20579182015b82811115610c1f578251825591602001919060010190610c04565b5b509050610c2d9190610c31565b5090565b5b80821115610c4a576000816000905550600101610c32565b5090565b6000610c61610c5c846110dc565b6110b7565b905082815260208101848484011115610c7957600080fd5b610c848482856111f8565b509392505050565b600081359050610c9b816114f8565b92915050565b600082601f830112610cb257600080fd5b8135610cc2848260208601610c4e565b91505092915050565b600081359050610cda8161150f565b92915050565b600060208284031215610cf257600080fd5b6000610d0084828501610c8c565b91505092915050565b600080600060608486031215610d1e57600080fd5b600084013567ffffffffffffffff811115610d3857600080fd5b610d4486828701610ca1565b9350506020610d5586828701610ccb565b9250506040610d6686828701610c8c565b9150509250925092565b600060208284031215610d8257600080fd5b6000610d9084828501610ccb565b91505092915050565b610da2816111b0565b82525050565b610db1816111c2565b82525050565b6000610dc28261110d565b610dcc8185611118565b9350610ddc818560208601611207565b610de5816113a2565b840191505092915050565b6000610dfd601183611118565b9150610e08826113b3565b602082019050919050565b6000610e20602683611118565b9150610e2b826113dc565b604082019050919050565b6000610e43601483611118565b9150610e4e8261142b565b602082019050919050565b6000610e66601383611118565b9150610e7182611454565b602082019050919050565b6000610e89601383611118565b9150610e948261147d565b602082019050919050565b6000610eac600c83611118565b9150610eb7826114a6565b602082019050919050565b6000610ecf601983611118565b9150610eda826114cf565b602082019050919050565b610eee816111ee565b82525050565b6000602082019050610f096000830184610d99565b92915050565b600060a0820190508181036000830152610f298188610db7565b9050610f386020830187610ee5565b610f456040830186610d99565b610f526060830185610ee5565b610f5f6080830184610da8565b9695505050505050565b60006020820190508181036000830152610f8281610df0565b9050919050565b60006020820190508181036000830152610fa281610e13565b9050919050565b60006020820190508181036000830152610fc281610e36565b9050919050565b60006020820190508181036000830152610fe281610e59565b9050919050565b6000602082019050818103600083015261100281610e7c565b9050919050565b6000602082019050818103600083015261102281610e9f565b9050919050565b6000602082019050818103600083015261104281610ec2565b9050919050565b600060208201905061105e6000830184610ee5565b92915050565b600060a0820190506110796000830188610ee5565b6110866020830187610ee5565b6110936040830186610ee5565b6110a06060830185610ee5565b6110ad6080830184610d99565b9695505050505050565b60006110c16110d2565b90506110cd828261126c565b919050565b6000604051905090565b600067ffffffffffffffff8211156110f7576110f6611373565b5b611100826113a2565b9050602081019050919050565b600081519050919050565b600082825260208201905092915050565b6000611134826111ee565b915061113f836111ee565b9250827fffffffffffffffffffffffffffffffffffffffffffffffffffffffffffffffff03821115611174576111736112e6565b5b828201905092915050565b600061118a826111ee565b9150611195836111ee565b9250826111a5576111a4611315565b5b828204905092915050565b60006111bb826111ce565b9050919050565b60008115159050919050565b600073ffffffffffffffffffffffffffffffffffffffff82169050919050565b6000819050919050565b82818337600083830152505050565b60005b8381101561122557808201518184015260208101905061120a565b83811115611234576000848401525b50505050565b6000600282049050600182168061125257607f821691505b6020821081141561126657611265611344565b5b50919050565b611275826113a2565b810181811067ffffffffffffffff8211171561129457611293611373565b5b80604052505050565b60006112a8826111ee565b91507fffffffffffffffffffffffffffffffffffffffffffffffffffffffffffffffff8214156112db576112da6112e6565b5b600182019050919050565b7f4e487b7100000000000000000000000000000000000000000000000000000000600052601160045260246000fd5b7f4e487b7100000000000000000000000000000000000000000000000000000000600052601260045260246000fd5b7f4e487b7100000000000000000000000000000000000000000000000000000000600052602260045260246000fd5b7f4e487b7100000000000000000000000000000000000000000000000000000000600052604160045260246000fd5b6000601f19601f8301169050919050565b7f52657175657374206e6f7420666f756e64000000000000000000000000000000600082015250565b7f596f7520646964206e6f7420636f6e7472696275746520746f2074686520636160008201527f6d706169676e0000000000000000000000000000000000000000000000000000602082015250565b7f52657175657374206e6f7420617070726f766564000000000000000000000000600082015250565b7f616d6f756e7420697320746f6f20736d616c6c00000000000000000000000000600082015250565b7f596f7520617265207468652063726561746f7200000000000000000000000000600082015250565b7f4f6e6c79206d616e616765720000000000000000000000000000000000000000600082015250565b7f5265717565737420616c726561647920636f6d706c6574656400000000000000600082015250565b611501816111b0565b811461150c57600080fd5b50565b611518816111ee565b811461152357600080fd5b5056fea2646970667358221220a90bb061fc4d33950611a0e63a58cffc33e06ca20f3cdee75644715ef0076ee164736f6c63430008010033",
  "immutableReferences": {},
  "source": "// SPDX-License-Identifier: MIT\r\npragma solidity >=0.7.4;\r\n\r\nimport \"./interfaces/ICampaign.sol\";\r\n\r\ncontract Campaign is ICampaign {\r\n    uint256 constant MIN_CONTRIBUTION = 10;\r\n    address public manager;\r\n    uint256 public minContribution;\r\n    mapping(address => uint256) public bakers;\r\n    uint256 public bakersCount;\r\n\r\n    struct Request {\r\n        string description;\r\n        uint256 value;\r\n        address recipient;\r\n        uint256 approved;\r\n        bool complete;\r\n    }\r\n\r\n    Request[] public requests;\r\n    mapping(uint256 => mapping(address => bool)) approvedByBaker;\r\n\r\n    modifier onlyManager() {\r\n        require(msg.sender == manager, \"Only manager\");\r\n        _;\r\n    }\r\n\r\n    constructor(address _manager, uint256 _minContribution) {\r\n        manager = _manager;\r\n        minContribution = _minContribution < MIN_CONTRIBUTION\r\n            ? MIN_CONTRIBUTION\r\n            : _minContribution;\r\n    }\r\n\r\n    function contribute() external payable override {\r\n        require(msg.value >= minContribution, \"amount is too small\");\r\n        if (bakers[msg.sender] == 0) {\r\n            bakersCount++;\r\n        }\r\n        bakers[msg.sender] += msg.value;\r\n    }\r\n\r\n    function createRequest(\r\n        string memory description,\r\n        uint256 value,\r\n        address recipient\r\n    ) external override onlyManager {\r\n        Request memory request =\r\n            Request({\r\n                description: description,\r\n                value: value,\r\n                recipient: recipient,\r\n                complete: false,\r\n                approved: 0\r\n            });\r\n        requests.push(request);\r\n    }\r\n\r\n    function approveRequest(uint256 index) external override {\r\n        require(manager != msg.sender, \"You are the creator\");\r\n        require(\r\n            bakers[msg.sender] >= minContribution,\r\n            \"You did not contribute to the campaign\"\r\n        );\r\n\r\n        Request storage request = requests[index];\r\n\r\n        require(request.value > 0, \"Request not found\");\r\n        require(!request.complete, \"Request already completed\");\r\n        bool isApprovedByBaker = approvedByBaker[index][msg.sender];\r\n        if (!isApprovedByBaker) {\r\n            approvedByBaker[index][msg.sender] = true;\r\n            request.approved++;\r\n        }\r\n    }\r\n\r\n    function finalizeRequest(uint256 index) external override onlyManager {\r\n        Request storage request = requests[index];\r\n        require(!request.complete, \"Request already completed\");\r\n        require(request.approved > (bakersCount / 2), \"Request not approved\");\r\n        request.complete = true;\r\n        payable(request.recipient).transfer(request.value);\r\n    }\r\n\r\n    function getSummary()\r\n        external\r\n        view\r\n        override\r\n        returns (\r\n            uint256,\r\n            uint256,\r\n            uint256,\r\n            uint256,\r\n            address\r\n        )\r\n    {\r\n        return (\r\n            minContribution,\r\n            address(this).balance,\r\n            requests.length,\r\n            bakersCount,\r\n            manager\r\n        );\r\n    }\r\n\r\n    function getRequestsCount() external view override returns (uint256) {\r\n        return requests.length;\r\n    }\r\n}\r\n",
  "sourcePath": "C:/Lgm local/cryickstart/cryickstart-core/contracts/Campaign.sol",
  "compiler": {
    "name": "solc",
    "version": "0.8.1+commit.df193b15.Emscripten.clang"
  },
  "schemaVersion": "3.3.4",
  "updatedAt": "2021-03-08T16:35:37.878Z",
  "devdoc": {
    "kind": "dev",
    "methods": {},
    "version": 1
  },
  "userdoc": {
    "kind": "user",
    "methods": {},
    "version": 1
  }
}