{
  "contractName": "Campaign",
  "abi": [
    {
      "inputs": [
        {
          "internalType": "address",
          "name": "_manager",
          "type": "address"
        },
        {
          "internalType": "uint256",
          "name": "_minContribution",
          "type": "uint256"
        }
      ],
      "stateMutability": "nonpayable",
      "type": "constructor"
    },
    {
      "inputs": [
        {
          "internalType": "address",
          "name": "",
          "type": "address"
        }
      ],
      "name": "bakers",
      "outputs": [
        {
          "internalType": "uint256",
          "name": "",
          "type": "uint256"
        }
      ],
      "stateMutability": "view",
      "type": "function"
    },
    {
      "inputs": [],
      "name": "bakersCount",
      "outputs": [
        {
          "internalType": "uint256",
          "name": "",
          "type": "uint256"
        }
      ],
      "stateMutability": "view",
      "type": "function"
    },
    {
      "inputs": [],
      "name": "manager",
      "outputs": [
        {
          "internalType": "address",
          "name": "",
          "type": "address"
        }
      ],
      "stateMutability": "view",
      "type": "function"
    },
    {
      "inputs": [],
      "name": "minContribution",
      "outputs": [
        {
          "internalType": "uint256",
          "name": "",
          "type": "uint256"
        }
      ],
      "stateMutability": "view",
      "type": "function"
    },
    {
      "inputs": [
        {
          "internalType": "uint256",
          "name": "",
          "type": "uint256"
        }
      ],
      "name": "requests",
      "outputs": [
        {
          "internalType": "string",
          "name": "description",
          "type": "string"
        },
        {
          "internalType": "uint256",
          "name": "value",
          "type": "uint256"
        },
        {
          "internalType": "address",
          "name": "recipient",
          "type": "address"
        },
        {
          "internalType": "uint256",
          "name": "approved",
          "type": "uint256"
        },
        {
          "internalType": "bool",
          "name": "complete",
          "type": "bool"
        }
      ],
      "stateMutability": "view",
      "type": "function"
    },
    {
      "inputs": [],
      "name": "contribute",
      "outputs": [],
      "stateMutability": "payable",
      "type": "function"
    },
    {
      "inputs": [
        {
          "internalType": "string",
          "name": "description",
          "type": "string"
        },
        {
          "internalType": "uint256",
          "name": "value",
          "type": "uint256"
        },
        {
          "internalType": "address",
          "name": "recipient",
          "type": "address"
        }
      ],
      "name": "createRequest",
      "outputs": [],
      "stateMutability": "nonpayable",
      "type": "function"
    },
    {
      "inputs": [
        {
          "internalType": "uint256",
          "name": "index",
          "type": "uint256"
        }
      ],
      "name": "approveRequest",
      "outputs": [],
      "stateMutability": "nonpayable",
      "type": "function"
    },
    {
      "inputs": [
        {
          "internalType": "uint256",
          "name": "index",
          "type": "uint256"
        }
      ],
      "name": "finalizeRequest",
      "outputs": [],
      "stateMutability": "nonpayable",
      "type": "function"
    },
    {
      "inputs": [],
      "name": "getSummary",
      "outputs": [
        {
          "internalType": "uint256",
          "name": "",
          "type": "uint256"
        },
        {
          "internalType": "uint256",
          "name": "",
          "type": "uint256"
        },
        {
          "internalType": "uint256",
          "name": "",
          "type": "uint256"
        },
        {
          "internalType": "uint256",
          "name": "",
          "type": "uint256"
        },
        {
          "internalType": "address",
          "name": "",
          "type": "address"
        }
      ],
      "stateMutability": "view",
      "type": "function"
    },
    {
      "inputs": [],
      "name": "getRequestsCount",
      "outputs": [
        {
          "internalType": "uint256",
          "name": "",
          "type": "uint256"
        }
      ],
      "stateMutability": "view",
      "type": "function"
    },
    {
      "inputs": [],
      "name": "getRequests",
      "outputs": [
        {
          "components": [
            {
              "internalType": "string",
              "name": "description",
              "type": "string"
            },
            {
              "internalType": "uint256",
              "name": "value",
              "type": "uint256"
            },
            {
              "internalType": "address",
              "name": "recipient",
              "type": "address"
            },
            {
              "internalType": "uint256",
              "name": "approved",
              "type": "uint256"
            },
            {
              "internalType": "bool",
              "name": "complete",
              "type": "bool"
            }
          ],
          "internalType": "struct ICampaign.Request[]",
          "name": "",
          "type": "tuple[]"
        }
      ],
      "stateMutability": "view",
      "type": "function"
    },
    {
      "inputs": [
        {
          "internalType": "uint256",
          "name": "index",
          "type": "uint256"
        }
      ],
      "name": "isApprovedBakerByRequest",
      "outputs": [
        {
          "internalType": "bool",
          "name": "",
          "type": "bool"
        }
      ],
      "stateMutability": "view",
      "type": "function"
    }
  ],
  "bytecode": "0x60806040523480156200001157600080fd5b5060405162001b3c38038062001b3c8339818101604052810190620000379190620000c6565b816000806101000a81548173ffffffffffffffffffffffffffffffffffffffff021916908373ffffffffffffffffffffffffffffffffffffffff160217905550600a81106200008757806200008a565b600a5b600181905550505062000179565b600081519050620000a98162000145565b92915050565b600081519050620000c0816200015f565b92915050565b60008060408385031215620000da57600080fd5b6000620000ea8582860162000098565b9250506020620000fd85828601620000af565b9150509250929050565b600062000114826200011b565b9050919050565b600073ffffffffffffffffffffffffffffffffffffffff82169050919050565b6000819050919050565b620001508162000107565b81146200015c57600080fd5b50565b6200016a816200013b565b81146200017657600080fd5b50565b6119b380620001896000396000f3fe6080604052600436106100c25760003560e01c80638813ce121161007f578063c14606f511610059578063c14606f514610272578063d7bb99ba1461029d578063d7d1bbdb146102a7578063efeaa901146102d0576100c2565b80638813ce12146101f35780638a9cfd551461021e578063aaffadf314610247576100c2565b806303441006146100c757806329104a7f146100f05780633410452a1461012d5780634051ddac14610158578063481c6a751461018757806381d12c58146101b2575b600080fd5b3480156100d357600080fd5b506100ee60048036038101906100e99190610fdb565b61030d565b005b3480156100fc57600080fd5b5061011760048036038101906101129190610fdb565b61051d565b6040516101249190611301565b60405180910390f35b34801561013957600080fd5b50610142610584565b60405161014f9190611456565b60405180910390f35b34801561016457600080fd5b5061016d610591565b60405161017e959493929190611471565b60405180910390f35b34801561019357600080fd5b5061019c6105d8565b6040516101a991906112c4565b60405180910390f35b3480156101be57600080fd5b506101d960048036038101906101d49190610fdb565b6105fc565b6040516101ea95949392919061131c565b60405180910390f35b3480156101ff57600080fd5b506102086106f7565b60405161021591906112df565b60405180910390f35b34801561022a57600080fd5b5061024560048036038101906102409190610f74565b61086d565b005b34801561025357600080fd5b5061025c610a0c565b6040516102699190611456565b60405180910390f35b34801561027e57600080fd5b50610287610a12565b6040516102949190611456565b60405180910390f35b6102a5610a18565b005b3480156102b357600080fd5b506102ce60048036038101906102c99190610fdb565b610b16565b005b3480156102dc57600080fd5b506102f760048036038101906102f29190610f4b565b610dfe565b6040516103049190611456565b60405180910390f35b60008054906101000a900473ffffffffffffffffffffffffffffffffffffffff1673ffffffffffffffffffffffffffffffffffffffff163373ffffffffffffffffffffffffffffffffffffffff161461039b576040517f08c379a000000000000000000000000000000000000000000000000000000000815260040161039290611416565b60405180910390fd5b6000600482815481106103d7577f4e487b7100000000000000000000000000000000000000000000000000000000600052603260045260246000fd5b906000526020600020906005020190508060040160009054906101000a900460ff1615610439576040517f08c379a000000000000000000000000000000000000000000000000000000000815260040161043090611436565b60405180910390fd5b600260035461044891906115d6565b81600301541161048d576040517f08c379a0000000000000000000000000000000000000000000000000000000008152600401610484906113b6565b60405180910390fd5b60018160040160006101000a81548160ff0219169083151502179055508060020160009054906101000a900473ffffffffffffffffffffffffffffffffffffffff1673ffffffffffffffffffffffffffffffffffffffff166108fc82600101549081150290604051600060405180830381858888f19350505050158015610518573d6000803e3d6000fd5b505050565b60006005600083815260200190815260200160002060003373ffffffffffffffffffffffffffffffffffffffff1673ffffffffffffffffffffffffffffffffffffffff16815260200190815260200160002060009054906101000a900460ff169050919050565b6000600480549050905090565b60008060008060006001544760048054905060035460008054906101000a900473ffffffffffffffffffffffffffffffffffffffff16945094509450945094509091929394565b60008054906101000a900473ffffffffffffffffffffffffffffffffffffffff1681565b6004818154811061060c57600080fd5b906000526020600020906005020160009150905080600001805461062f90611691565b80601f016020809104026020016040519081016040528092919081815260200182805461065b90611691565b80156106a85780601f1061067d576101008083540402835291602001916106a8565b820191906000526020600020905b81548152906001019060200180831161068b57829003601f168201915b5050505050908060010154908060020160009054906101000a900473ffffffffffffffffffffffffffffffffffffffff16908060030154908060040160009054906101000a900460ff16905085565b60606004805480602002602001604051908101604052809291908181526020016000905b8282101561086457838290600052602060002090600502016040518060a001604052908160008201805461074e90611691565b80601f016020809104026020016040519081016040528092919081815260200182805461077a90611691565b80156107c75780601f1061079c576101008083540402835291602001916107c7565b820191906000526020600020905b8154815290600101906020018083116107aa57829003601f168201915b50505050508152602001600182015481526020016002820160009054906101000a900473ffffffffffffffffffffffffffffffffffffffff1673ffffffffffffffffffffffffffffffffffffffff1673ffffffffffffffffffffffffffffffffffffffff168152602001600382015481526020016004820160009054906101000a900460ff1615151515815250508152602001906001019061071b565b50505050905090565b60008054906101000a900473ffffffffffffffffffffffffffffffffffffffff1673ffffffffffffffffffffffffffffffffffffffff163373ffffffffffffffffffffffffffffffffffffffff16146108fb576040517f08c379a00000000000000000000000000000000000000000000000000000000081526004016108f290611416565b60405180910390fd5b60006040518060a001604052808581526020018481526020018373ffffffffffffffffffffffffffffffffffffffff1681526020016000815260200160001515815250905060048190806001815401808255809150506001900390600052602060002090600502016000909190919091506000820151816000019080519060200190610988929190610e16565b506020820151816001015560408201518160020160006101000a81548173ffffffffffffffffffffffffffffffffffffffff021916908373ffffffffffffffffffffffffffffffffffffffff1602179055506060820151816003015560808201518160040160006101000a81548160ff021916908315150217905550505050505050565b60015481565b60035481565b600154341015610a5d576040517f08c379a0000000000000000000000000000000000000000000000000000000008152600401610a54906113d6565b60405180910390fd5b6000600260003373ffffffffffffffffffffffffffffffffffffffff1673ffffffffffffffffffffffffffffffffffffffff168152602001908152602001600020541415610abe5760036000815480929190610ab8906116f4565b91905055505b34600260003373ffffffffffffffffffffffffffffffffffffffff1673ffffffffffffffffffffffffffffffffffffffff1681526020019081526020016000206000828254610b0d9190611580565b92505081905550565b3373ffffffffffffffffffffffffffffffffffffffff1660008054906101000a900473ffffffffffffffffffffffffffffffffffffffff1673ffffffffffffffffffffffffffffffffffffffff161415610ba5576040517f08c379a0000000000000000000000000000000000000000000000000000000008152600401610b9c906113f6565b60405180910390fd5b600154600260003373ffffffffffffffffffffffffffffffffffffffff1673ffffffffffffffffffffffffffffffffffffffff168152602001908152602001600020541015610c29576040517f08c379a0000000000000000000000000000000000000000000000000000000008152600401610c2090611396565b60405180910390fd5b600060048281548110610c65577f4e487b7100000000000000000000000000000000000000000000000000000000600052603260045260246000fd5b906000526020600020906005020190506000816001015411610cbc576040517f08c379a0000000000000000000000000000000000000000000000000000000008152600401610cb390611376565b60405180910390fd5b8060040160009054906101000a900460ff1615610d0e576040517f08c379a0000000000000000000000000000000000000000000000000000000008152600401610d0590611436565b60405180910390fd5b60006005600084815260200190815260200160002060003373ffffffffffffffffffffffffffffffffffffffff1673ffffffffffffffffffffffffffffffffffffffff16815260200190815260200160002060009054906101000a900460ff16905080610df95760016005600085815260200190815260200160002060003373ffffffffffffffffffffffffffffffffffffffff1673ffffffffffffffffffffffffffffffffffffffff16815260200190815260200160002060006101000a81548160ff021916908315150217905550816003016000815480929190610df3906116f4565b91905055505b505050565b60026020528060005260406000206000915090505481565b828054610e2290611691565b90600052602060002090601f016020900481019282610e445760008555610e8b565b82601f10610e5d57805160ff1916838001178555610e8b565b82800160010185558215610e8b579182015b82811115610e8a578251825591602001919060010190610e6f565b5b509050610e989190610e9c565b5090565b5b80821115610eb5576000816000905550600101610e9d565b5090565b6000610ecc610ec7846114e9565b6114c4565b905082815260208101848484011115610ee457600080fd5b610eef84828561164f565b509392505050565b600081359050610f068161194f565b92915050565b600082601f830112610f1d57600080fd5b8135610f2d848260208601610eb9565b91505092915050565b600081359050610f4581611966565b92915050565b600060208284031215610f5d57600080fd5b6000610f6b84828501610ef7565b91505092915050565b600080600060608486031215610f8957600080fd5b600084013567ffffffffffffffff811115610fa357600080fd5b610faf86828701610f0c565b9350506020610fc086828701610f36565b9250506040610fd186828701610ef7565b9150509250925092565b600060208284031215610fed57600080fd5b6000610ffb84828501610f36565b91505092915050565b60006110108383611230565b905092915050565b61102181611607565b82525050565b61103081611607565b82525050565b60006110418261152a565b61104b818561154d565b93508360208202850161105d8561151a565b8060005b85811015611099578484038952815161107a8582611004565b945061108583611540565b925060208a01995050600181019050611061565b50829750879550505050505092915050565b6110b481611619565b82525050565b6110c381611619565b82525050565b60006110d482611535565b6110de818561155e565b93506110ee81856020860161165e565b6110f7816117f9565b840191505092915050565b600061110d82611535565b611117818561156f565b935061112781856020860161165e565b611130816117f9565b840191505092915050565b600061114860118361156f565b91506111538261180a565b602082019050919050565b600061116b60268361156f565b915061117682611833565b604082019050919050565b600061118e60148361156f565b915061119982611882565b602082019050919050565b60006111b160138361156f565b91506111bc826118ab565b602082019050919050565b60006111d460138361156f565b91506111df826118d4565b602082019050919050565b60006111f7600c8361156f565b9150611202826118fd565b602082019050919050565b600061121a60198361156f565b915061122582611926565b602082019050919050565b600060a083016000830151848203600086015261124d82826110c9565b915050602083015161126260208601826112a6565b5060408301516112756040860182611018565b50606083015161128860608601826112a6565b50608083015161129b60808601826110ab565b508091505092915050565b6112af81611645565b82525050565b6112be81611645565b82525050565b60006020820190506112d96000830184611027565b92915050565b600060208201905081810360008301526112f98184611036565b905092915050565b600060208201905061131660008301846110ba565b92915050565b600060a08201905081810360008301526113368188611102565b905061134560208301876112b5565b6113526040830186611027565b61135f60608301856112b5565b61136c60808301846110ba565b9695505050505050565b6000602082019050818103600083015261138f8161113b565b9050919050565b600060208201905081810360008301526113af8161115e565b9050919050565b600060208201905081810360008301526113cf81611181565b9050919050565b600060208201905081810360008301526113ef816111a4565b9050919050565b6000602082019050818103600083015261140f816111c7565b9050919050565b6000602082019050818103600083015261142f816111ea565b9050919050565b6000602082019050818103600083015261144f8161120d565b9050919050565b600060208201905061146b60008301846112b5565b92915050565b600060a08201905061148660008301886112b5565b61149360208301876112b5565b6114a060408301866112b5565b6114ad60608301856112b5565b6114ba6080830184611027565b9695505050505050565b60006114ce6114df565b90506114da82826116c3565b919050565b6000604051905090565b600067ffffffffffffffff821115611504576115036117ca565b5b61150d826117f9565b9050602081019050919050565b6000819050602082019050919050565b600081519050919050565b600081519050919050565b6000602082019050919050565b600082825260208201905092915050565b600082825260208201905092915050565b600082825260208201905092915050565b600061158b82611645565b915061159683611645565b9250827fffffffffffffffffffffffffffffffffffffffffffffffffffffffffffffffff038211156115cb576115ca61173d565b5b828201905092915050565b60006115e182611645565b91506115ec83611645565b9250826115fc576115fb61176c565b5b828204905092915050565b600061161282611625565b9050919050565b60008115159050919050565b600073ffffffffffffffffffffffffffffffffffffffff82169050919050565b6000819050919050565b82818337600083830152505050565b60005b8381101561167c578082015181840152602081019050611661565b8381111561168b576000848401525b50505050565b600060028204905060018216806116a957607f821691505b602082108114156116bd576116bc61179b565b5b50919050565b6116cc826117f9565b810181811067ffffffffffffffff821117156116eb576116ea6117ca565b5b80604052505050565b60006116ff82611645565b91507fffffffffffffffffffffffffffffffffffffffffffffffffffffffffffffffff8214156117325761173161173d565b5b600182019050919050565b7f4e487b7100000000000000000000000000000000000000000000000000000000600052601160045260246000fd5b7f4e487b7100000000000000000000000000000000000000000000000000000000600052601260045260246000fd5b7f4e487b7100000000000000000000000000000000000000000000000000000000600052602260045260246000fd5b7f4e487b7100000000000000000000000000000000000000000000000000000000600052604160045260246000fd5b6000601f19601f8301169050919050565b7f52657175657374206e6f7420666f756e64000000000000000000000000000000600082015250565b7f596f7520646964206e6f7420636f6e7472696275746520746f2074686520636160008201527f6d706169676e0000000000000000000000000000000000000000000000000000602082015250565b7f52657175657374206e6f7420617070726f766564000000000000000000000000600082015250565b7f616d6f756e7420697320746f6f20736d616c6c00000000000000000000000000600082015250565b7f596f7520617265207468652063726561746f7200000000000000000000000000600082015250565b7f4f6e6c79206d616e616765720000000000000000000000000000000000000000600082015250565b7f5265717565737420616c726561647920636f6d706c6574656400000000000000600082015250565b61195881611607565b811461196357600080fd5b50565b61196f81611645565b811461197a57600080fd5b5056fea26469706673582212205edbf6ca7cd0e498ba6563aaa2daceb9aac37f385dad5ec6fa68c4dff472978764736f6c63430008010033",
  "immutableReferences": {},
  "source": "// SPDX-License-Identifier: MIT\r\npragma solidity >=0.7.4;\r\n\r\nimport \"./interfaces/ICampaign.sol\";\r\n\r\ncontract Campaign is ICampaign {\r\n    uint256 constant MIN_CONTRIBUTION = 10;\r\n    address public manager;\r\n    uint256 public minContribution;\r\n    mapping(address => uint256) public bakers;\r\n    uint256 public bakersCount;\r\n\r\n    Request[] public requests;\r\n    mapping(uint256 => mapping(address => bool)) approvedByBaker;\r\n\r\n    modifier onlyManager() {\r\n        require(msg.sender == manager, \"Only manager\");\r\n        _;\r\n    }\r\n\r\n    constructor(address _manager, uint256 _minContribution) {\r\n        manager = _manager;\r\n        minContribution = _minContribution < MIN_CONTRIBUTION\r\n            ? MIN_CONTRIBUTION\r\n            : _minContribution;\r\n    }\r\n\r\n    function contribute() external payable override {\r\n        require(msg.value >= minContribution, \"amount is too small\");\r\n        if (bakers[msg.sender] == 0) {\r\n            bakersCount++;\r\n        }\r\n        bakers[msg.sender] += msg.value;\r\n    }\r\n\r\n    function createRequest(\r\n        string memory description,\r\n        uint256 value,\r\n        address recipient\r\n    ) external override onlyManager {\r\n        Request memory request =\r\n            Request({\r\n                description: description,\r\n                value: value,\r\n                recipient: recipient,\r\n                complete: false,\r\n                approved: 0\r\n            });\r\n        requests.push(request);\r\n    }\r\n\r\n    function approveRequest(uint256 index) external override {\r\n        require(manager != msg.sender, \"You are the creator\");\r\n        require(\r\n            bakers[msg.sender] >= minContribution,\r\n            \"You did not contribute to the campaign\"\r\n        );\r\n\r\n        Request storage request = requests[index];\r\n\r\n        require(request.value > 0, \"Request not found\");\r\n        require(!request.complete, \"Request already completed\");\r\n        bool isApprovedByBaker = approvedByBaker[index][msg.sender];\r\n        if (!isApprovedByBaker) {\r\n            approvedByBaker[index][msg.sender] = true;\r\n            request.approved++;\r\n        }\r\n    }\r\n\r\n    function finalizeRequest(uint256 index) external override onlyManager {\r\n        Request storage request = requests[index];\r\n        require(!request.complete, \"Request already completed\");\r\n        require(request.approved > (bakersCount / 2), \"Request not approved\");\r\n        request.complete = true;\r\n        payable(request.recipient).transfer(request.value);\r\n    }\r\n\r\n    function getSummary()\r\n        external\r\n        view\r\n        override\r\n        returns (\r\n            uint256,\r\n            uint256,\r\n            uint256,\r\n            uint256,\r\n            address\r\n        )\r\n    {\r\n        return (\r\n            minContribution,\r\n            address(this).balance,\r\n            requests.length,\r\n            bakersCount,\r\n            manager\r\n        );\r\n    }\r\n\r\n    function getRequestsCount() external view override returns (uint256) {\r\n        return requests.length;\r\n    }\r\n\r\n    function getRequests() external view override returns (Request[] memory) {\r\n        return requests;\r\n    }\r\n\r\n    function isApprovedBakerByRequest(uint256 index)\r\n        external\r\n        view\r\n        override\r\n        returns (bool)\r\n    {\r\n        return approvedByBaker[index][msg.sender];\r\n    }\r\n}\r\n",
  "sourcePath": "C:/Lgm local/cryickstart/cryickstart-core/contracts/Campaign.sol",
  "compiler": {
    "name": "solc",
    "version": "0.8.1+commit.df193b15.Emscripten.clang"
  },
  "schemaVersion": "3.3.4",
  "updatedAt": "2021-03-09T15:07:21.486Z",
  "devdoc": {
    "kind": "dev",
    "methods": {},
    "version": 1
  },
  "userdoc": {
    "kind": "user",
    "methods": {},
    "version": 1
  }
}