{
  "contractName": "Campaign",
  "abi": [
    {
      "inputs": [
        {
          "internalType": "address",
          "name": "_manager",
          "type": "address"
        },
        {
          "internalType": "uint256",
          "name": "_minContribution",
          "type": "uint256"
        }
      ],
      "stateMutability": "nonpayable",
      "type": "constructor"
    },
    {
      "inputs": [
        {
          "internalType": "address",
          "name": "",
          "type": "address"
        }
      ],
      "name": "bakers",
      "outputs": [
        {
          "internalType": "uint256",
          "name": "",
          "type": "uint256"
        }
      ],
      "stateMutability": "view",
      "type": "function"
    },
    {
      "inputs": [],
      "name": "bakersCount",
      "outputs": [
        {
          "internalType": "uint256",
          "name": "",
          "type": "uint256"
        }
      ],
      "stateMutability": "view",
      "type": "function"
    },
    {
      "inputs": [],
      "name": "manager",
      "outputs": [
        {
          "internalType": "address",
          "name": "",
          "type": "address"
        }
      ],
      "stateMutability": "view",
      "type": "function"
    },
    {
      "inputs": [],
      "name": "minContribution",
      "outputs": [
        {
          "internalType": "uint256",
          "name": "",
          "type": "uint256"
        }
      ],
      "stateMutability": "view",
      "type": "function"
    },
    {
      "inputs": [
        {
          "internalType": "uint256",
          "name": "",
          "type": "uint256"
        }
      ],
      "name": "requests",
      "outputs": [
        {
          "internalType": "string",
          "name": "description",
          "type": "string"
        },
        {
          "internalType": "uint256",
          "name": "value",
          "type": "uint256"
        },
        {
          "internalType": "address",
          "name": "recipient",
          "type": "address"
        },
        {
          "internalType": "uint256",
          "name": "approved",
          "type": "uint256"
        },
        {
          "internalType": "bool",
          "name": "complete",
          "type": "bool"
        }
      ],
      "stateMutability": "view",
      "type": "function"
    },
    {
      "inputs": [],
      "name": "contribute",
      "outputs": [],
      "stateMutability": "payable",
      "type": "function"
    },
    {
      "inputs": [
        {
          "internalType": "string",
          "name": "description",
          "type": "string"
        },
        {
          "internalType": "uint256",
          "name": "value",
          "type": "uint256"
        },
        {
          "internalType": "address",
          "name": "recipient",
          "type": "address"
        }
      ],
      "name": "createRequest",
      "outputs": [],
      "stateMutability": "nonpayable",
      "type": "function"
    },
    {
      "inputs": [
        {
          "internalType": "uint256",
          "name": "index",
          "type": "uint256"
        }
      ],
      "name": "approveRequest",
      "outputs": [],
      "stateMutability": "nonpayable",
      "type": "function"
    },
    {
      "inputs": [
        {
          "internalType": "uint256",
          "name": "index",
          "type": "uint256"
        }
      ],
      "name": "finalizeRequest",
      "outputs": [],
      "stateMutability": "nonpayable",
      "type": "function"
    }
  ],
  "bytecode": "0x60806040523480156200001157600080fd5b50604051620015ce380380620015ce8339818101604052810190620000379190620000c6565b816000806101000a81548173ffffffffffffffffffffffffffffffffffffffff021916908373ffffffffffffffffffffffffffffffffffffffff160217905550600a81106200008757806200008a565b600a5b600181905550505062000179565b600081519050620000a98162000145565b92915050565b600081519050620000c0816200015f565b92915050565b60008060408385031215620000da57600080fd5b6000620000ea8582860162000098565b9250506020620000fd85828601620000af565b9150509250929050565b600062000114826200011b565b9050919050565b600073ffffffffffffffffffffffffffffffffffffffff82169050919050565b6000819050919050565b620001508162000107565b81146200015c57600080fd5b50565b6200016a816200013b565b81146200017657600080fd5b50565b61144580620001896000396000f3fe6080604052600436106100865760003560e01c8063aaffadf311610059578063aaffadf314610149578063c14606f514610174578063d7bb99ba1461019f578063d7d1bbdb146101a9578063efeaa901146101d257610086565b8063034410061461008b578063481c6a75146100b457806381d12c58146100df5780638a9cfd5514610120575b600080fd5b34801561009757600080fd5b506100b260048036038101906100ad9190610cac565b61020f565b005b3480156100c057600080fd5b506100c961041f565b6040516100d69190610e30565b60405180910390f35b3480156100eb57600080fd5b5061010660048036038101906101019190610cac565b610443565b604051610117959493929190610e4b565b60405180910390f35b34801561012c57600080fd5b5061014760048036038101906101429190610c45565b61053e565b005b34801561015557600080fd5b5061015e6106dd565b60405161016b9190610f85565b60405180910390f35b34801561018057600080fd5b506101896106e3565b6040516101969190610f85565b60405180910390f35b6101a76106e9565b005b3480156101b557600080fd5b506101d060048036038101906101cb9190610cac565b6107e7565b005b3480156101de57600080fd5b506101f960048036038101906101f49190610c1c565b610acf565b6040516102069190610f85565b60405180910390f35b60008054906101000a900473ffffffffffffffffffffffffffffffffffffffff1673ffffffffffffffffffffffffffffffffffffffff163373ffffffffffffffffffffffffffffffffffffffff161461029d576040517f08c379a000000000000000000000000000000000000000000000000000000000815260040161029490610f45565b60405180910390fd5b6000600482815481106102d9577f4e487b7100000000000000000000000000000000000000000000000000000000600052603260045260246000fd5b906000526020600020906005020190508060040160009054906101000a900460ff161561033b576040517f08c379a000000000000000000000000000000000000000000000000000000000815260040161033290610f65565b60405180910390fd5b600260035461034a9190611068565b81600301541161038f576040517f08c379a000000000000000000000000000000000000000000000000000000000815260040161038690610ee5565b60405180910390fd5b60018160040160006101000a81548160ff0219169083151502179055508060020160009054906101000a900473ffffffffffffffffffffffffffffffffffffffff1673ffffffffffffffffffffffffffffffffffffffff166108fc82600101549081150290604051600060405180830381858888f1935050505015801561041a573d6000803e3d6000fd5b505050565b60008054906101000a900473ffffffffffffffffffffffffffffffffffffffff1681565b6004818154811061045357600080fd5b906000526020600020906005020160009150905080600001805461047690611123565b80601f01602080910402602001604051908101604052809291908181526020018280546104a290611123565b80156104ef5780601f106104c4576101008083540402835291602001916104ef565b820191906000526020600020905b8154815290600101906020018083116104d257829003601f168201915b5050505050908060010154908060020160009054906101000a900473ffffffffffffffffffffffffffffffffffffffff16908060030154908060040160009054906101000a900460ff16905085565b60008054906101000a900473ffffffffffffffffffffffffffffffffffffffff1673ffffffffffffffffffffffffffffffffffffffff163373ffffffffffffffffffffffffffffffffffffffff16146105cc576040517f08c379a00000000000000000000000000000000000000000000000000000000081526004016105c390610f45565b60405180910390fd5b60006040518060a001604052808581526020018481526020018373ffffffffffffffffffffffffffffffffffffffff1681526020016000815260200160001515815250905060048190806001815401808255809150506001900390600052602060002090600502016000909190919091506000820151816000019080519060200190610659929190610ae7565b506020820151816001015560408201518160020160006101000a81548173ffffffffffffffffffffffffffffffffffffffff021916908373ffffffffffffffffffffffffffffffffffffffff1602179055506060820151816003015560808201518160040160006101000a81548160ff021916908315150217905550505050505050565b60015481565b60035481565b60015434101561072e576040517f08c379a000000000000000000000000000000000000000000000000000000000815260040161072590610f05565b60405180910390fd5b6000600260003373ffffffffffffffffffffffffffffffffffffffff1673ffffffffffffffffffffffffffffffffffffffff16815260200190815260200160002054141561078f576003600081548092919061078990611186565b91905055505b34600260003373ffffffffffffffffffffffffffffffffffffffff1673ffffffffffffffffffffffffffffffffffffffff16815260200190815260200160002060008282546107de9190611012565b92505081905550565b3373ffffffffffffffffffffffffffffffffffffffff1660008054906101000a900473ffffffffffffffffffffffffffffffffffffffff1673ffffffffffffffffffffffffffffffffffffffff161415610876576040517f08c379a000000000000000000000000000000000000000000000000000000000815260040161086d90610f25565b60405180910390fd5b600154600260003373ffffffffffffffffffffffffffffffffffffffff1673ffffffffffffffffffffffffffffffffffffffff1681526020019081526020016000205410156108fa576040517f08c379a00000000000000000000000000000000000000000000000000000000081526004016108f190610ec5565b60405180910390fd5b600060048281548110610936577f4e487b7100000000000000000000000000000000000000000000000000000000600052603260045260246000fd5b90600052602060002090600502019050600081600101541161098d576040517f08c379a000000000000000000000000000000000000000000000000000000000815260040161098490610ea5565b60405180910390fd5b8060040160009054906101000a900460ff16156109df576040517f08c379a00000000000000000000000000000000000000000000000000000000081526004016109d690610f65565b60405180910390fd5b60006005600084815260200190815260200160002060003373ffffffffffffffffffffffffffffffffffffffff1673ffffffffffffffffffffffffffffffffffffffff16815260200190815260200160002060009054906101000a900460ff16905080610aca5760016005600085815260200190815260200160002060003373ffffffffffffffffffffffffffffffffffffffff1673ffffffffffffffffffffffffffffffffffffffff16815260200190815260200160002060006101000a81548160ff021916908315150217905550816003016000815480929190610ac490611186565b91905055505b505050565b60026020528060005260406000206000915090505481565b828054610af390611123565b90600052602060002090601f016020900481019282610b155760008555610b5c565b82601f10610b2e57805160ff1916838001178555610b5c565b82800160010185558215610b5c579182015b82811115610b5b578251825591602001919060010190610b40565b5b509050610b699190610b6d565b5090565b5b80821115610b86576000816000905550600101610b6e565b5090565b6000610b9d610b9884610fc5565b610fa0565b905082815260208101848484011115610bb557600080fd5b610bc08482856110e1565b509392505050565b600081359050610bd7816113e1565b92915050565b600082601f830112610bee57600080fd5b8135610bfe848260208601610b8a565b91505092915050565b600081359050610c16816113f8565b92915050565b600060208284031215610c2e57600080fd5b6000610c3c84828501610bc8565b91505092915050565b600080600060608486031215610c5a57600080fd5b600084013567ffffffffffffffff811115610c7457600080fd5b610c8086828701610bdd565b9350506020610c9186828701610c07565b9250506040610ca286828701610bc8565b9150509250925092565b600060208284031215610cbe57600080fd5b6000610ccc84828501610c07565b91505092915050565b610cde81611099565b82525050565b610ced816110ab565b82525050565b6000610cfe82610ff6565b610d088185611001565b9350610d188185602086016110f0565b610d218161128b565b840191505092915050565b6000610d39601183611001565b9150610d448261129c565b602082019050919050565b6000610d5c602683611001565b9150610d67826112c5565b604082019050919050565b6000610d7f601483611001565b9150610d8a82611314565b602082019050919050565b6000610da2601383611001565b9150610dad8261133d565b602082019050919050565b6000610dc5601383611001565b9150610dd082611366565b602082019050919050565b6000610de8600c83611001565b9150610df38261138f565b602082019050919050565b6000610e0b601983611001565b9150610e16826113b8565b602082019050919050565b610e2a816110d7565b82525050565b6000602082019050610e456000830184610cd5565b92915050565b600060a0820190508181036000830152610e658188610cf3565b9050610e746020830187610e21565b610e816040830186610cd5565b610e8e6060830185610e21565b610e9b6080830184610ce4565b9695505050505050565b60006020820190508181036000830152610ebe81610d2c565b9050919050565b60006020820190508181036000830152610ede81610d4f565b9050919050565b60006020820190508181036000830152610efe81610d72565b9050919050565b60006020820190508181036000830152610f1e81610d95565b9050919050565b60006020820190508181036000830152610f3e81610db8565b9050919050565b60006020820190508181036000830152610f5e81610ddb565b9050919050565b60006020820190508181036000830152610f7e81610dfe565b9050919050565b6000602082019050610f9a6000830184610e21565b92915050565b6000610faa610fbb565b9050610fb68282611155565b919050565b6000604051905090565b600067ffffffffffffffff821115610fe057610fdf61125c565b5b610fe98261128b565b9050602081019050919050565b600081519050919050565b600082825260208201905092915050565b600061101d826110d7565b9150611028836110d7565b9250827fffffffffffffffffffffffffffffffffffffffffffffffffffffffffffffffff0382111561105d5761105c6111cf565b5b828201905092915050565b6000611073826110d7565b915061107e836110d7565b92508261108e5761108d6111fe565b5b828204905092915050565b60006110a4826110b7565b9050919050565b60008115159050919050565b600073ffffffffffffffffffffffffffffffffffffffff82169050919050565b6000819050919050565b82818337600083830152505050565b60005b8381101561110e5780820151818401526020810190506110f3565b8381111561111d576000848401525b50505050565b6000600282049050600182168061113b57607f821691505b6020821081141561114f5761114e61122d565b5b50919050565b61115e8261128b565b810181811067ffffffffffffffff8211171561117d5761117c61125c565b5b80604052505050565b6000611191826110d7565b91507fffffffffffffffffffffffffffffffffffffffffffffffffffffffffffffffff8214156111c4576111c36111cf565b5b600182019050919050565b7f4e487b7100000000000000000000000000000000000000000000000000000000600052601160045260246000fd5b7f4e487b7100000000000000000000000000000000000000000000000000000000600052601260045260246000fd5b7f4e487b7100000000000000000000000000000000000000000000000000000000600052602260045260246000fd5b7f4e487b7100000000000000000000000000000000000000000000000000000000600052604160045260246000fd5b6000601f19601f8301169050919050565b7f52657175657374206e6f7420666f756e64000000000000000000000000000000600082015250565b7f596f7520646964206e6f7420636f6e7472696275746520746f2074686520636160008201527f6d706169676e0000000000000000000000000000000000000000000000000000602082015250565b7f52657175657374206e6f7420617070726f766564000000000000000000000000600082015250565b7f616d6f756e7420697320746f6f20736d616c6c00000000000000000000000000600082015250565b7f596f7520617265207468652063726561746f7200000000000000000000000000600082015250565b7f4f6e6c79206d616e616765720000000000000000000000000000000000000000600082015250565b7f5265717565737420616c726561647920636f6d706c6574656400000000000000600082015250565b6113ea81611099565b81146113f557600080fd5b50565b611401816110d7565b811461140c57600080fd5b5056fea26469706673582212203abe560cd6678a810dccbbdaadcc33649e637527a2ab2443001dde687e5eb6b664736f6c63430008010033",
  "immutableReferences": {},
  "source": "// SPDX-License-Identifier: MIT\r\npragma solidity >=0.7.4;\r\n\r\nimport \"./interfaces/ICampaign.sol\";\r\n\r\ncontract Campaign is ICampaign {\r\n    uint256 constant MIN_CONTRIBUTION = 10;\r\n    address public manager;\r\n    uint256 public minContribution;\r\n    mapping(address => uint256) public bakers;\r\n    uint256 public bakersCount;\r\n\r\n    struct Request {\r\n        string description;\r\n        uint256 value;\r\n        address recipient;\r\n        uint256 approved;\r\n        bool complete;\r\n    }\r\n\r\n    Request[] public requests;\r\n    mapping(uint256 => mapping(address => bool)) approvedByBaker;\r\n\r\n    modifier onlyManager() {\r\n        require(msg.sender == manager, \"Only manager\");\r\n        _;\r\n    }\r\n\r\n    constructor(address _manager, uint256 _minContribution) {\r\n        manager = _manager;\r\n        minContribution = _minContribution < MIN_CONTRIBUTION\r\n            ? MIN_CONTRIBUTION\r\n            : _minContribution;\r\n    }\r\n\r\n    function contribute() external payable override {\r\n        require(msg.value >= minContribution, \"amount is too small\");\r\n        if (bakers[msg.sender] == 0) {\r\n            bakersCount++;\r\n        }\r\n        bakers[msg.sender] += msg.value;\r\n    }\r\n\r\n    function createRequest(\r\n        string memory description,\r\n        uint256 value,\r\n        address recipient\r\n    ) external override onlyManager {\r\n        Request memory request =\r\n            Request({\r\n                description: description,\r\n                value: value,\r\n                recipient: recipient,\r\n                complete: false,\r\n                approved: 0\r\n            });\r\n        requests.push(request);\r\n    }\r\n\r\n    function approveRequest(uint256 index) external override {\r\n        require(manager != msg.sender, \"You are the creator\");\r\n        require(\r\n            bakers[msg.sender] >= minContribution,\r\n            \"You did not contribute to the campaign\"\r\n        );\r\n\r\n        Request storage request = requests[index];\r\n\r\n        require(request.value > 0, \"Request not found\");\r\n        require(!request.complete, \"Request already completed\");\r\n        bool isApprovedByBaker = approvedByBaker[index][msg.sender];\r\n        if (!isApprovedByBaker) {\r\n            approvedByBaker[index][msg.sender] = true;\r\n            request.approved++;\r\n        }\r\n    }\r\n\r\n    function finalizeRequest(uint256 index) external override onlyManager {\r\n        Request storage request = requests[index];\r\n        require(!request.complete, \"Request already completed\");\r\n        require(request.approved > (bakersCount / 2), \"Request not approved\");\r\n        request.complete = true;\r\n        payable(request.recipient).transfer(request.value);\r\n    }\r\n}\r\n",
  "sourcePath": "C:/Lgm local/cryickstart/core/contracts/Campaign.sol",
  "compiler": {
    "name": "solc",
    "version": "0.8.1+commit.df193b15.Emscripten.clang"
  },
  "schemaVersion": "3.3.4",
  "updatedAt": "2021-03-04T10:46:59.192Z",
  "devdoc": {
    "kind": "dev",
    "methods": {},
    "version": 1
  },
  "userdoc": {
    "kind": "user",
    "methods": {},
    "version": 1
  }
}