{
  "contractName": "Campaign",
  "abi": [
    {
      "inputs": [
        {
          "internalType": "address",
          "name": "_manager",
          "type": "address"
        },
        {
          "internalType": "uint256",
          "name": "_minContribution",
          "type": "uint256"
        }
      ],
      "stateMutability": "nonpayable",
      "type": "constructor"
    },
    {
      "inputs": [
        {
          "internalType": "address",
          "name": "",
          "type": "address"
        }
      ],
      "name": "bakers",
      "outputs": [
        {
          "internalType": "uint256",
          "name": "",
          "type": "uint256"
        }
      ],
      "stateMutability": "view",
      "type": "function"
    },
    {
      "inputs": [],
      "name": "manager",
      "outputs": [
        {
          "internalType": "address",
          "name": "",
          "type": "address"
        }
      ],
      "stateMutability": "view",
      "type": "function"
    },
    {
      "inputs": [],
      "name": "minContribution",
      "outputs": [
        {
          "internalType": "uint256",
          "name": "",
          "type": "uint256"
        }
      ],
      "stateMutability": "view",
      "type": "function"
    },
    {
      "inputs": [
        {
          "internalType": "uint256",
          "name": "",
          "type": "uint256"
        }
      ],
      "name": "requests",
      "outputs": [
        {
          "internalType": "string",
          "name": "description",
          "type": "string"
        },
        {
          "internalType": "uint256",
          "name": "value",
          "type": "uint256"
        },
        {
          "internalType": "address",
          "name": "recipient",
          "type": "address"
        },
        {
          "internalType": "uint256",
          "name": "approved",
          "type": "uint256"
        },
        {
          "internalType": "bool",
          "name": "complete",
          "type": "bool"
        }
      ],
      "stateMutability": "view",
      "type": "function"
    },
    {
      "inputs": [],
      "name": "contribute",
      "outputs": [],
      "stateMutability": "payable",
      "type": "function"
    },
    {
      "inputs": [
        {
          "internalType": "string",
          "name": "description",
          "type": "string"
        },
        {
          "internalType": "uint256",
          "name": "value",
          "type": "uint256"
        },
        {
          "internalType": "address",
          "name": "recipient",
          "type": "address"
        }
      ],
      "name": "createRequest",
      "outputs": [],
      "stateMutability": "nonpayable",
      "type": "function"
    },
    {
      "inputs": [
        {
          "internalType": "uint256",
          "name": "index",
          "type": "uint256"
        }
      ],
      "name": "approveRequest",
      "outputs": [],
      "stateMutability": "nonpayable",
      "type": "function"
    },
    {
      "inputs": [
        {
          "internalType": "uint256",
          "name": "index",
          "type": "uint256"
        }
      ],
      "name": "finalizeRequest",
      "outputs": [],
      "stateMutability": "nonpayable",
      "type": "function"
    }
  ],
  "bytecode": "0x60806040523480156200001157600080fd5b5060405162001592380380620015928339818101604052810190620000379190620000c6565b816000806101000a81548173ffffffffffffffffffffffffffffffffffffffff021916908373ffffffffffffffffffffffffffffffffffffffff160217905550600a81106200008757806200008a565b600a5b600181905550505062000179565b600081519050620000a98162000145565b92915050565b600081519050620000c0816200015f565b92915050565b60008060408385031215620000da57600080fd5b6000620000ea8582860162000098565b9250506020620000fd85828601620000af565b9150509250929050565b600062000114826200011b565b9050919050565b600073ffffffffffffffffffffffffffffffffffffffff82169050919050565b6000819050919050565b620001508162000107565b81146200015c57600080fd5b50565b6200016a816200013b565b81146200017657600080fd5b50565b61140980620001896000396000f3fe60806040526004361061007b5760003560e01c8063aaffadf31161004e578063aaffadf31461013e578063d7bb99ba14610169578063d7d1bbdb14610173578063efeaa9011461019c5761007b565b80630344100614610080578063481c6a75146100a957806381d12c58146100d45780638a9cfd5514610115575b600080fd5b34801561008c57600080fd5b506100a760048036038101906100a29190610c70565b6101d9565b005b3480156100b557600080fd5b506100be6103e9565b6040516100cb9190610df4565b60405180910390f35b3480156100e057600080fd5b506100fb60048036038101906100f69190610c70565b61040d565b60405161010c959493929190610e0f565b60405180910390f35b34801561012157600080fd5b5061013c60048036038101906101379190610c09565b610508565b005b34801561014a57600080fd5b506101536106a7565b6040516101609190610f49565b60405180910390f35b6101716106ad565b005b34801561017f57600080fd5b5061019a60048036038101906101959190610c70565b6107ab565b005b3480156101a857600080fd5b506101c360048036038101906101be9190610be0565b610a93565b6040516101d09190610f49565b60405180910390f35b60008054906101000a900473ffffffffffffffffffffffffffffffffffffffff1673ffffffffffffffffffffffffffffffffffffffff163373ffffffffffffffffffffffffffffffffffffffff1614610267576040517f08c379a000000000000000000000000000000000000000000000000000000000815260040161025e90610f09565b60405180910390fd5b6000600482815481106102a3577f4e487b7100000000000000000000000000000000000000000000000000000000600052603260045260246000fd5b906000526020600020906005020190508060040160009054906101000a900460ff1615610305576040517f08c379a00000000000000000000000000000000000000000000000000000000081526004016102fc90610f29565b60405180910390fd5b6002600354610314919061102c565b816003015411610359576040517f08c379a000000000000000000000000000000000000000000000000000000000815260040161035090610ea9565b60405180910390fd5b60018160040160006101000a81548160ff0219169083151502179055508060020160009054906101000a900473ffffffffffffffffffffffffffffffffffffffff1673ffffffffffffffffffffffffffffffffffffffff166108fc82600101549081150290604051600060405180830381858888f193505050501580156103e4573d6000803e3d6000fd5b505050565b60008054906101000a900473ffffffffffffffffffffffffffffffffffffffff1681565b6004818154811061041d57600080fd5b9060005260206000209060050201600091509050806000018054610440906110e7565b80601f016020809104026020016040519081016040528092919081815260200182805461046c906110e7565b80156104b95780601f1061048e576101008083540402835291602001916104b9565b820191906000526020600020905b81548152906001019060200180831161049c57829003601f168201915b5050505050908060010154908060020160009054906101000a900473ffffffffffffffffffffffffffffffffffffffff16908060030154908060040160009054906101000a900460ff16905085565b60008054906101000a900473ffffffffffffffffffffffffffffffffffffffff1673ffffffffffffffffffffffffffffffffffffffff163373ffffffffffffffffffffffffffffffffffffffff1614610596576040517f08c379a000000000000000000000000000000000000000000000000000000000815260040161058d90610f09565b60405180910390fd5b60006040518060a001604052808581526020018481526020018373ffffffffffffffffffffffffffffffffffffffff1681526020016000815260200160001515815250905060048190806001815401808255809150506001900390600052602060002090600502016000909190919091506000820151816000019080519060200190610623929190610aab565b506020820151816001015560408201518160020160006101000a81548173ffffffffffffffffffffffffffffffffffffffff021916908373ffffffffffffffffffffffffffffffffffffffff1602179055506060820151816003015560808201518160040160006101000a81548160ff021916908315150217905550505050505050565b60015481565b6001543410156106f2576040517f08c379a00000000000000000000000000000000000000000000000000000000081526004016106e990610ec9565b60405180910390fd5b6000600260003373ffffffffffffffffffffffffffffffffffffffff1673ffffffffffffffffffffffffffffffffffffffff168152602001908152602001600020541415610753576003600081548092919061074d9061114a565b91905055505b34600260003373ffffffffffffffffffffffffffffffffffffffff1673ffffffffffffffffffffffffffffffffffffffff16815260200190815260200160002060008282546107a29190610fd6565b92505081905550565b3373ffffffffffffffffffffffffffffffffffffffff1660008054906101000a900473ffffffffffffffffffffffffffffffffffffffff1673ffffffffffffffffffffffffffffffffffffffff16141561083a576040517f08c379a000000000000000000000000000000000000000000000000000000000815260040161083190610ee9565b60405180910390fd5b600154600260003373ffffffffffffffffffffffffffffffffffffffff1673ffffffffffffffffffffffffffffffffffffffff1681526020019081526020016000205410156108be576040517f08c379a00000000000000000000000000000000000000000000000000000000081526004016108b590610e89565b60405180910390fd5b6000600482815481106108fa577f4e487b7100000000000000000000000000000000000000000000000000000000600052603260045260246000fd5b906000526020600020906005020190506000816001015411610951576040517f08c379a000000000000000000000000000000000000000000000000000000000815260040161094890610e69565b60405180910390fd5b8060040160009054906101000a900460ff16156109a3576040517f08c379a000000000000000000000000000000000000000000000000000000000815260040161099a90610f29565b60405180910390fd5b60006005600084815260200190815260200160002060003373ffffffffffffffffffffffffffffffffffffffff1673ffffffffffffffffffffffffffffffffffffffff16815260200190815260200160002060009054906101000a900460ff16905080610a8e5760016005600085815260200190815260200160002060003373ffffffffffffffffffffffffffffffffffffffff1673ffffffffffffffffffffffffffffffffffffffff16815260200190815260200160002060006101000a81548160ff021916908315150217905550816003016000815480929190610a889061114a565b91905055505b505050565b60026020528060005260406000206000915090505481565b828054610ab7906110e7565b90600052602060002090601f016020900481019282610ad95760008555610b20565b82601f10610af257805160ff1916838001178555610b20565b82800160010185558215610b20579182015b82811115610b1f578251825591602001919060010190610b04565b5b509050610b2d9190610b31565b5090565b5b80821115610b4a576000816000905550600101610b32565b5090565b6000610b61610b5c84610f89565b610f64565b905082815260208101848484011115610b7957600080fd5b610b848482856110a5565b509392505050565b600081359050610b9b816113a5565b92915050565b600082601f830112610bb257600080fd5b8135610bc2848260208601610b4e565b91505092915050565b600081359050610bda816113bc565b92915050565b600060208284031215610bf257600080fd5b6000610c0084828501610b8c565b91505092915050565b600080600060608486031215610c1e57600080fd5b600084013567ffffffffffffffff811115610c3857600080fd5b610c4486828701610ba1565b9350506020610c5586828701610bcb565b9250506040610c6686828701610b8c565b9150509250925092565b600060208284031215610c8257600080fd5b6000610c9084828501610bcb565b91505092915050565b610ca28161105d565b82525050565b610cb18161106f565b82525050565b6000610cc282610fba565b610ccc8185610fc5565b9350610cdc8185602086016110b4565b610ce58161124f565b840191505092915050565b6000610cfd601183610fc5565b9150610d0882611260565b602082019050919050565b6000610d20602683610fc5565b9150610d2b82611289565b604082019050919050565b6000610d43601483610fc5565b9150610d4e826112d8565b602082019050919050565b6000610d66601383610fc5565b9150610d7182611301565b602082019050919050565b6000610d89601383610fc5565b9150610d948261132a565b602082019050919050565b6000610dac600c83610fc5565b9150610db782611353565b602082019050919050565b6000610dcf601983610fc5565b9150610dda8261137c565b602082019050919050565b610dee8161109b565b82525050565b6000602082019050610e096000830184610c99565b92915050565b600060a0820190508181036000830152610e298188610cb7565b9050610e386020830187610de5565b610e456040830186610c99565b610e526060830185610de5565b610e5f6080830184610ca8565b9695505050505050565b60006020820190508181036000830152610e8281610cf0565b9050919050565b60006020820190508181036000830152610ea281610d13565b9050919050565b60006020820190508181036000830152610ec281610d36565b9050919050565b60006020820190508181036000830152610ee281610d59565b9050919050565b60006020820190508181036000830152610f0281610d7c565b9050919050565b60006020820190508181036000830152610f2281610d9f565b9050919050565b60006020820190508181036000830152610f4281610dc2565b9050919050565b6000602082019050610f5e6000830184610de5565b92915050565b6000610f6e610f7f565b9050610f7a8282611119565b919050565b6000604051905090565b600067ffffffffffffffff821115610fa457610fa3611220565b5b610fad8261124f565b9050602081019050919050565b600081519050919050565b600082825260208201905092915050565b6000610fe18261109b565b9150610fec8361109b565b9250827fffffffffffffffffffffffffffffffffffffffffffffffffffffffffffffffff0382111561102157611020611193565b5b828201905092915050565b60006110378261109b565b91506110428361109b565b925082611052576110516111c2565b5b828204905092915050565b60006110688261107b565b9050919050565b60008115159050919050565b600073ffffffffffffffffffffffffffffffffffffffff82169050919050565b6000819050919050565b82818337600083830152505050565b60005b838110156110d25780820151818401526020810190506110b7565b838111156110e1576000848401525b50505050565b600060028204905060018216806110ff57607f821691505b60208210811415611113576111126111f1565b5b50919050565b6111228261124f565b810181811067ffffffffffffffff8211171561114157611140611220565b5b80604052505050565b60006111558261109b565b91507fffffffffffffffffffffffffffffffffffffffffffffffffffffffffffffffff82141561118857611187611193565b5b600182019050919050565b7f4e487b7100000000000000000000000000000000000000000000000000000000600052601160045260246000fd5b7f4e487b7100000000000000000000000000000000000000000000000000000000600052601260045260246000fd5b7f4e487b7100000000000000000000000000000000000000000000000000000000600052602260045260246000fd5b7f4e487b7100000000000000000000000000000000000000000000000000000000600052604160045260246000fd5b6000601f19601f8301169050919050565b7f52657175657374206e6f7420666f756e64000000000000000000000000000000600082015250565b7f596f7520646964206e6f7420636f6e7472696275746520746f2074686520636160008201527f6d706169676e0000000000000000000000000000000000000000000000000000602082015250565b7f52657175657374206e6f7420617070726f766564000000000000000000000000600082015250565b7f616d6f756e7420697320746f6f20736d616c6c00000000000000000000000000600082015250565b7f596f7520617265207468652063726561746f7200000000000000000000000000600082015250565b7f4f6e6c79206d616e616765720000000000000000000000000000000000000000600082015250565b7f5265717565737420616c726561647920636f6d706c6574656400000000000000600082015250565b6113ae8161105d565b81146113b957600080fd5b50565b6113c58161109b565b81146113d057600080fd5b5056fea2646970667358221220110107b9ded73ae4b9cca9f29cca54e570b589f7e8e1b33542e98011d958634e64736f6c63430008010033",
  "immutableReferences": {},
  "source": "// SPDX-License-Identifier: MIT\r\npragma solidity >=0.7.4;\r\n\r\nimport \"./interfaces/ICampaign.sol\";\r\n\r\ncontract Campaign is ICampaign {\r\n    uint256 constant MIN_CONTRIBUTION = 10;\r\n    address public manager;\r\n    uint256 public minContribution;\r\n    mapping(address => uint256) public bakers;\r\n    uint256 bakersCount;\r\n\r\n    struct Request {\r\n        string description;\r\n        uint256 value;\r\n        address recipient;\r\n        uint256 approved;\r\n        bool complete;\r\n    }\r\n\r\n    Request[] public requests;\r\n    mapping(uint256 => mapping(address => bool)) approvedByBaker;\r\n\r\n    modifier onlyManager() {\r\n        require(msg.sender == manager, \"Only manager\");\r\n        _;\r\n    }\r\n\r\n    constructor(address _manager, uint256 _minContribution) {\r\n        manager = _manager;\r\n        minContribution = _minContribution < MIN_CONTRIBUTION\r\n            ? MIN_CONTRIBUTION\r\n            : _minContribution;\r\n    }\r\n\r\n    function contribute() external payable override {\r\n        require(msg.value >= minContribution, \"amount is too small\");\r\n        if (bakers[msg.sender] == 0) {\r\n            bakersCount++;\r\n        }\r\n        bakers[msg.sender] += msg.value;\r\n    }\r\n\r\n    function createRequest(\r\n        string memory description,\r\n        uint256 value,\r\n        address recipient\r\n    ) external override onlyManager {\r\n        Request memory request =\r\n            Request({\r\n                description: description,\r\n                value: value,\r\n                recipient: recipient,\r\n                complete: false,\r\n                approved: 0\r\n            });\r\n        requests.push(request);\r\n    }\r\n\r\n    function approveRequest(uint256 index) external override {\r\n        require(manager != msg.sender, \"You are the creator\");\r\n        require(\r\n            bakers[msg.sender] >= minContribution,\r\n            \"You did not contribute to the campaign\"\r\n        );\r\n\r\n        Request storage request = requests[index];\r\n\r\n        require(request.value > 0, \"Request not found\");\r\n        require(!request.complete, \"Request already completed\");\r\n        bool isApprovedByBaker = approvedByBaker[index][msg.sender];\r\n        if (!isApprovedByBaker) {\r\n            approvedByBaker[index][msg.sender] = true;\r\n            request.approved++;\r\n        }\r\n    }\r\n\r\n    function finalizeRequest(uint256 index) external override onlyManager {\r\n        Request storage request = requests[index];\r\n        require(!request.complete, \"Request already completed\");\r\n        require(request.approved > (bakersCount / 2), \"Request not approved\");\r\n        request.complete = true;\r\n        payable(request.recipient).transfer(request.value);\r\n    }\r\n}\r\n",
  "sourcePath": "C:\\Lgm local\\cryickstart\\core\\contracts\\Campaign.sol",
  "compiler": {
    "name": "solc",
    "version": "0.8.1+commit.df193b15.Emscripten.clang"
  },
  "schemaVersion": "3.3.4",
  "updatedAt": "2021-03-02T18:37:17.267Z",
  "devdoc": {
    "kind": "dev",
    "methods": {},
    "version": 1
  },
  "userdoc": {
    "kind": "user",
    "methods": {},
    "version": 1
  }
}